:100000000C94A2020C94E9020C94E9020C94E9020B
:100010000C94E9020C94E9020C94E9020C94E902B4
:100020000C94E9020C94E9020C94E61C0C94A21CBA
:100030000C9491240C94E9020C94E9020C94E902CA
:100040000C94E9020C94E9020C94E9020C94E90284
:100050000C94E9020C946D240C94E9020C94E902CE
:100060000C94E9020C94E9020C94E9020C94E90264
:100070000C94E9020C94E9020C94E9020C94E90254
:100080000C94E9020C94E9020C94E9020C94E90244
:100090000C94E9020C94E9020C94E9020C94E90234
:1000A0000C94E9020C94E9020C94E90200000000AF
:1000B0000000000000000000000000000000000040
:1000C0000000000000000000000000000000000030
:1000D0007E0F00D4FFFFFFC7000000780000000083
:1000E000000000002A2B2800000000000000000093
:1000F0000000000000000029000000002C1E342039
:10010000212224342627252E362D3738271E1F205E
:100110002122232425263333362E37381F040506A3
:100120000708090A0B0C0D0E0F10111213141516E7
:100130001718191A1B1C1D2F3130232D35040506E5
:100140000708090A0B0C0D0E0F10111213141516C7
:100150001718191A1B1C1D2F3130354C00010101D5
:100160000101010101010202020202020202020374
:100170000303030303030304040404040404050544
:100180000505050606060606070707070708080807
:1001900008090909090A0A0A0B0B0B0C0C0C0D0DB6
:1001A0000D0E0E0E0F0F0F1010111111121213134E
:1001B0001414151516161717181819191A1A1B1BC7
:1001C0001C1D1D1E1E1F2020212222232424252623
:1001D00026272829292A2B2C2D2D2E2F303132325B
:1001E000333435363738393A3B3C3D3E3F40414267
:1001F000434445464748494A4C4D4E4F505153544D
:10020000555658595A5B5D5E5F6162646566686900
:100210006B6C6D6F7072737577787A7B7D7E808280
:10022000838587888A8C8E8F91939596989A9C9EC9
:10023000A0A2A3A5A7A9ABADAFB1B3B5B7BABCBED9
:10024000C0C2C4C6C9CBCDCFD1D4D6D8DBDDDFE2A6
:10025000E4E7E9EBEEF0F3F5F8FAFDFF010209013E
:1002600004313030307C01030900676974207374F5
:10027000617475730A0067697420707573680A0089
:100280006769742070756C6C0A0067697420696E08
:1002900069740067697420636F6D6D6974202D6DDA
:1002A0000067697420616464202E0A0030300011F8
:1002B000501350540055005600AB005F00600061C1
:1002C000005700AC005C005D005E00A800AE005965
:1002D000005A005B0058007300C35C2700630000F5
:1002E0000015500100010001000100CA5C0100017D
:1002F0000001000100CB5C0100010001000100C40D
:100300005C01000100010001000100010001000189
:1003100000000010500100010001000100605D01BB
:1003200000010001000100615D0100010001000108
:1003300000645D0100010001000100625D01000137
:1003400000010000001050500001004F00E00010BC
:100350005043004400450004511150400041004208
:1003600000010001003D003E003F00010001003A95
:1003700000E3003C0000001050010001000100E01B
:10038000001050430044004500010011504000415E
:10039000004200010001003D003E003F000100015D
:1003A000003A00E3003C00000029001E001F00206E
:1003B0000010502B0014001A00080015003900042A
:1003C00000160007001700E1001D001B0006002CAE
:1003D00000E00001001D00E200000005010902A18B
:1003E0000185020901A10005091901290815002547
:1003F0000195087501810205010930093115812532
:100400007F95027508810609381581257F9501754C
:10041000088106050C0A38021581257F95017508AB
:100420008106C0C005010980A101850319012AB711
:1004300000150126B700950175108100C0050C0953
:1004400001A101850419012AA002150126A0029527
:100450000175108100C005010906A1018505050788
:1004600019E029E7150025019508750181020507A6
:10047000190029EF1500250195F075018102050885
:1004800019012905950575019102950175039101E1
:10049000C005010906A101050719E029E715002596
:1004A00001950875018102950175088101050719FB
:1004B0000029FF150026FF00950675088100050834
:1004C00019012905950575019102950175039101A1
:1004D000C009023B00020100A0FA09040000010368
:1004E00001010009211101000122400007058103DB
:1004F00008000A090401000103000000092111019C
:10050000000122B6000705820320000A1201100133
:10051000000000081275AB3601000102000114034F
:100520005300740072006D0050006100640076009A
:10053000320000000A034800650048006500000022
:100540000403090411241FBECFEFDAE0DEBFCDBFE4
:1005500004B603FE27C08091F7029091F802A091A3
:10056000F902B091FA028730904BA740B04BD1F41A
:100570001092F7021092F8021092F9021092FA0209
:1005800014BE84B7877F84BF0FB6F894A895809176
:100590006000886180936000109260000FBEE0E010
:1005A000F8E3099522E0AAECB1E001C01D92A73F53
:1005B000B207E1F711E0A0E0B1E0E4E8FCE402C03A
:1005C00005900D92AA3CB107D9F70E94BD1D0C946D
:1005D000F7250C940000E8EDF0E080818E7F8083A9
:1005E0001092E2001092DA001092E100A0EEB0E06A
:1005F0008C9181608C9380818F77808319BCA7ED6B
:10060000B0E08C918E7F8C9380818F7E808310925E
:10061000BD0208952091E4003091E50095E6A9011E
:100620002091EC00822F817020FF06C08091E800AD
:1006300080FF06C080E008952091E80022FD1AC0E6
:100640008091E302882389F0853089F08091EB0066
:1006500085FD0FC02091E4003091E500421753075B
:10066000F9F29150E1F684E0089582E0089583E084
:10067000089581E00895EF92FF920F931F93CF9317
:100680007C018B010E940A03C82F811117C0809141
:10069000E80085FD0BC08091E8008E778093E8002C
:1006A0000E940A03882399F3C82F08C0F70181919B
:1006B0007F018093F1000150110949F78C2FCF91F0
:1006C0001F910F91FF90EF9008958091E50287FFB1
:1006D00013C08091E80082FF06C08091E8008B770C
:1006E0008093E80004C08091E3028111F2CF089565
:1006F0008091E3028823D9F38091E80080FFF8CF4E
:100700008091E8008E77ECCF982F9093E900242F0A
:10071000762F50E0891731F07091EC002091ED00B8
:100720005091F00021FD07C09F5F973071F78093D3
:10073000E90081E008953091EB003E7F3093EB00BB
:100740003091ED003D7F3093ED003091EB00316052
:100750003093EB007093EC002093ED005093F00089
:100760002091EE0027FDE0CF80E00895CF92DF9248
:10077000EF92FF920F931F93CF93DF93C8EDD0E0DA
:1007800088818F7E8883E7EDF0E0808181608083BF
:1007900084E082BF81E08093BD0288818E7F888360
:1007A00002EE10E0F80110821092DA0081EEC82EFD
:1007B000D12CF601108288818F77888388818068A8
:1007C000888388818F7D888319BC1092E302109200
:1007D000E4021092E2021092E10290EEE92EF12C76
:1007E000F70180818B7F808388818160888342E0EC
:1007F00060E080E00E948403F60180818E7F808328
:10080000F801808181608083808188608083F70126
:1008100080818E7F8083888180618883DF91CF9102
:100820001F910F91FF90EF90DF90CF900895FC0102
:100830008091EB029091EC0286179707A0F061156A
:10084000710529F49091E8009E779093E80090E07C
:100850006115710551F4911108C08091E80082FF83
:1008600034C080E00895BC01F2CF8091E302882378
:10087000C1F18530C1F18091E80083FD30C08091E5
:10088000E80082FDEACF8091E80080FFE1CF80910F
:10089000F3002091F200382F6115710519F028300E
:1008A000310558F091E02830310509F090E02091B1
:1008B000E8002E772093E800CBCF81918093F10060
:1008C000615071092F5F3F4FE7CF8091E30288238A
:1008D00041F0853041F08091E80083FFBECF81E098
:1008E000089582E0089583E00895E42FF0E0EE0F8C
:1008F000FF1FE559FE4F918D921B97FD9195292F72
:1009000038E1239F212D1124620F08950F931F9327
:1009100010E0F801EE0FFF1FE559FE4F918D905743
:1009200097FD9195000F111FF801EB57FE4F0081C5
:100930000052110B2003F001219FF00D112408E358
:1009400010E0091B110997FD139540039001419F89
:10095000300D1124E20FF31F9F01220F331F2E0FC2
:100960003F1F37FF02C021583F4F220F232F221F66
:10097000330B620F1F910F9108950F931F93522F06
:1009800010E0F801EE0FFF1FEB57FE4FA081A052C1
:10099000BB0B9D015203F001539FF00D1124000F7A
:1009A000111FD801A559BE4F59960C910057110B34
:1009B00040039001419F300D11242E0F3F1F37FF40
:1009C00002C0215C3F4F96E0359527959A95E1F757
:1009D000620F1F910F9108950F931F93522F10E0F4
:1009E000F801EE0FFF1FEB57FE4FA081A052BB0B8B
:1009F0009D015203F001539FF00D1124000F111FB0
:100A0000D801A559BE4F59960C910057110B4003C0
:100A10009001419F300D11242E0F3F1F37FF02C060
:100A200021583F4F220F232F221F330B620F1F919C
:100A30000F910895EF920F93972F23E0029FB0013B
:100A40001124759567956E0D792F0F91EF9008958C
:100A5000322F50E0FA01EE0FFF1FEB57FE4F90814F
:100A6000905297FD9195440F551FFA01E559FE4F9D
:100A7000218D231B330B290F311D97FD3A95620FF2
:100A80000895E42FF0E0EE0FFF1FEB57FE4F60815B
:100A9000621B0895E42FF0E0EE0FFF1FE559FE4FB3
:100AA000618D621B0895622F0895E42FF0E0EE0F30
:100AB000FF1FE559FE4F418D34EE439F412D112418
:100AC000E82FF0E050E0445E5F4FDA01A21BB1096D
:100AD0009D01B7FF03C031952195310993E0220FA5
:100AE000331F9A95E1F7AF01421B530B9A0157FD53
:100AF00020E0582F259F212D1124822F0895E42FC7
:100B0000F0E0EE0FFF1FE559FE4F418D34EE439F9D
:100B1000412D1124E72FF0E050E0445E5F4FDA01F1
:100B2000A21BB1099D01B7FF03C031952195310981
:100B300093E0220F331F9A95E1F7AF01421B530B4D
:100B40009A0157FD20E0279F212D1124722F08952F
:100B500080E008958091C00208959C014FB7F894F9
:100B60008091A6029091A702A091A802B091A9023B
:100B70004FBF821B930B08952FB7F8948091A60264
:100B80009091A702A091A802B091A9022FBF089549
:100B9000209110012223C9F020918B0227FF15C05C
:100BA000E62FE695E695E695EE31D8F4E80FF92FB5
:100BB000F11D677021E030E001C0220F6A95EAF76D
:100BC00020958281282322830895FC01329608967D
:100BD0002191621303C0DF0111971C92E817F907F6
:100BE000B9F708958091BE0290918602892B909169
:100BF0008502892B8093CC01E0919202F0919302BF
:100C0000309799F090911001992349F090918B02BF
:100C100097FF05C08093CD0185E08093CC010280D1
:100C2000F381E02D8CEC91E009940895E92FEE0F0B
:100C3000EE0F9E0F890F982F977086958695869553
:100C400025E0829FF0011124EF58FD4F50E040E075
:100C500080E0219130E0092E02C0369527950A9454
:100C6000E2F721703327042E01C0220F0A94EAF71D
:100C7000822B4F5F5F4F4530510559F70895E92F9B
:100C8000EE0FEE0F9E0F890F982F977041E001C075
:100C9000440F9A95EAF786958695869595E0899F03
:100CA000F0011124EF58FD4F30E020E070E0519149
:100CB000DF011197CB01022E02C0969587950A9409
:100CC000E2F7817081958527842385278C932F5F98
:100CD0003F4F2530310559F708958091700290916A
:100CE0003F02981301C008958F5F8770FACF882361
:100CF00041F080959091BE0289238093BE020C94AE
:100D0000F2050895882339F09091BE02982B9093B4
:100D1000BE020C94F20508952091360230913702FC
:100D20002817390771F09093370280933602E091CB
:100D30009202F0919302309721F00084F185E02D2A
:100D4000099408952091340230913502281739070B
:100D500071F09093350280933402E0919202F09109
:100D60009302309721F00680F781E02D09940895D1
:100D7000E0919202F0919302309721F00190F0817E
:100D8000E02D099480E00895FA01811101C0FB0172
:100D90000994EFEEF1E0818360834283339692E021
:100DA000E433F907C1F70895FC01EE0FFF1FE80FC8
:100DB000F91FE151FE4F61834083228308950C9413
:100DC000C9060C94D406FC019B01009729F480E02D
:100DD00077FF2BC080E80895AC0197FF04C044273B
:100DE0005527481B590BB901640F751F37FD10C0FB
:100DF000241B350BC901A5E0880F991FAA95E1F7BF
:100E00000E94CC2480E2861BF7FF0FC081950895D5
:100E1000CB0165E0880F991F6A95E1F7BA01621B63
:100E2000730B0E94CC2480E6EECF0895EF920F93CF
:100E3000CF93DF93D72FC82FC9010E19BA010E9493
:100E4000E306602F681B7D2F8C2FDF91CF910F91D0
:100E5000EF9008950F93CF93DF93D72FC82FC90139
:100E6000BA010E94E306682F600F7D2F8C2FDF915F
:100E7000CF910F910895EF920F931F93CF93DF932C
:100E8000D62FC72F182FC9010E19010FBA010E94C2
:100E9000E306081B202F219F212D1124822F6D2F67
:100EA0007C2FDF91CF911F910F91EF900895EF92DA
:100EB0000F931F93CF93DF93D62F172FC82FC901FE
:100EC0000E19070FBA010E94E306702F781B719F5D
:100ED000712D11246D2F8C2FDF91CF911F910F91C8
:100EE000EF9008950F931F93CF93DF93D62FC72FC3
:100EF000182FC901212F201B022FBA010E94E306DF
:100F0000982F990F990F891B800F282F219F212D32
:100F10001124822F6D2F7C2FDF91CF911F910F9184
:100F200008950F931F93CF93DF93D62F172FC82FBA
:100F3000C901272F201B022FBA010E94E306982F18
:100F4000990F990F782F791B700F719F712D1124B4
:100F50006D2F8C2FDF91CF911F910F910895E82F66
:100F600086FDE0952E2F2F7086FD2F5FE695E69586
:100F7000E695E670F0E0E85EFE4F9181929F902D3D
:100F8000212D112492959F702295207F922B2081F4
:100F9000920F87FD919580E8890F08950F931F9315
:100FA000CF93DF938B01D82FC42F822F0E94AF07DE
:100FB000EC2FF0E0EE0FFF1FE559FE4F918D90589A
:100FC000890F87FD8195880F682F2CE0629F612D26
:100FD0001124600F712F8D2FDF91CF911F910F91F1
:100FE0000895AC018230910508F408959FEF413EC9
:100FF0008EE1580740F49A0195E0369527959A9529
:10100000E1F798E0920F61E0E62FE90FFF27FF1F5D
:101010009F0135952795822F229FF001239FF00D88
:10102000F00D11244E175F0738F49FEF920F9617BB
:1010300058F78FEF860F08952F3FE9F361E0620FB5
:10104000F6CF0F93CF93DF93D72FC82F47FD41954E
:1010500088E390E0841B910947FD9395889FB00138
:10106000899F700D700D1124229FC001239F900D48
:10107000900D1124860F971F0E94F107982F990F4A
:10108000890F682F600F7D2F8C2FDF91CF910F91EB
:10109000089530E020E0869F212D969F200D311D80
:1010A0001124C9010895AF92BF92CF92DF92FF92AF
:1010B0000F931F93CF93DF93362F472FE82FF0E046
:1010C000E45AFE4F71110FC0E4918E2F2E2F6E2F18
:1010D000722FDF91CF911F910F91FF90DF90CF90F2
:1010E000BF90AF900895C72FD0E02491F22E022F29
:1010F00010E056E0659FC0011124EFEFF0E0BF0162
:101100000E94B824832F90E0880F991F35E5369F01
:10111000D001379FB00D11248A1B9B0B982F990F7C
:10112000980F6F01CC1ADD0AC09ED001C19EB00D90
:10113000D09EB00D11248B2F499FA0011124452F63
:1011400055276F01C41AD50AC09EA001C19E500D3B
:10115000D09E500D11245F01A91AB108AC9E600108
:10116000AD9ED00CBC9ED00C1124CD2CDD24EC19EE
:10117000FD09E09FE001E19FD00DF09FD00D11240B
:10118000ED2F62307105A1F050F46115710509F47D
:101190009ECF6130710581F0EB2F852F98CF6430A1
:1011A000710569F080F06630710509F490CFF4CFD5
:1011B000E22F2B2F8D2F8BCFE22F252F88CFEB2FD8
:1011C000822F2D2F84CF2B2F8F2DE52F80CF5F9255
:1011D0006F927F928F929F92AF92BF92CF92DF9247
:1011E000EF92FF920F931F93CF93DF933C01809177
:1011F0001101C82FCC0FCC0FC80F15E01C0FF12E1A
:10120000183110F037E1F32E6091F5026695809168
:10121000ED029091EE020E944908582ED0E0CE01D6
:10122000880F991F9C0125593E4F6901CF15A0F0E9
:1012300081E0173108F080E0DF91CF911F910F918D
:10124000FF90EF90DF90CF90BF90AF909F908F90E6
:101250007F906F905F900895FE01EE54FE4F808165
:1012600090911201892379F1F601818D282F205761
:10127000330B5901828DE82FE052FF0B4F01AA9CDE
:101280009001AB9C300D300D1124EE9FC001EF9FFB
:10129000900D900D1124820F931F0E94F107082FCB
:1012A0006091F2027091F3028091F402E52C9401B6
:1012B000A501F30109950E945308462F282F672F97
:1012C000CE010E94E106F2E0CF0ED11C2196AECFF6
:1012D000AF92BF92CF92DF92EF92FF920F931F9344
:1012E000CF93DF936C0180911101C82FCC0FCC0FED
:1012F000C80F15E01C0FB12E183110F037E1B32ED6
:101300006091F50266958091ED029091EE020E9447
:101310004908A82ED0E0CE01880F991F9C012559BD
:101320003E4F7901CB1578F081E0173108F080E06D
:10133000DF91CF911F910F91FF90EF90DF90CF90B1
:10134000BF90AF900895FE01EE54FE4F80819091C2
:1013500012018923C1F0F701228D2052330B418DF8
:101360004057550B6091F2027091F3028091F402A4
:101370000A2DF60109950E945308462F282F672F42
:10138000CE010E94E106F2E0EF0EF11C2196CACFD9
:10139000DF92EF92FF920F931F93CF93DF937C0125
:1013A00080911101C82FCC0FCC0FC80F15E01C0F76
:1013B000012F183108F007E16091F50266956695F6
:1013C00021E0620F08F46FEF8091ED029091EE0240
:1013D0000E944908D82ED0E0C01760F081E0173194
:1013E00008F080E0DF91CF911F910F91FF90EF9077
:1013F000DF900895FE01EE54FE4F8081909112011E
:10140000892391F06091F2027091F3028091F402CD
:101410002D2D4C2FF70109950E945308462F282F98
:10142000672FCE010E94E1062196D6CF9F92AF9200
:10143000BF92CF92DF92EF92FF920F931F93CF93C1
:10144000DF936C0180911101C82FCC0FCC0FC80F16
:1014500015E01C0FB12E183110F037E1B32E60915A
:10146000F502669566958091ED029091EE020E94DC
:101470004908F82E80E48F0D0E94AF0790E8A92E4E
:10148000A80E8F2D0E94AF0720E8922E980ED0E074
:10149000CB1580F081E0173108F080E0DF91CF912B
:1014A0001F910F91FF90EF90DF90CF90BF90AF9082
:1014B0009F900895FE01EE54FE4F8081909112019D
:1014C0008923A1F06091F2027091F3028091F402FD
:1014D000EF2C0C2F292D4A2DF60109950E94530857
:1014E000462F282F672FCE010E94E1062196D0CFEC
:1014F0000E94BC059C019091B2028091B302982B8E
:1015000021F03093AF022093AE029091B40280910B
:10151000B502982B21F03093AC022093AB02E091FE
:101520009202F0919302309749F082E08093B002EA
:101530000480F581E02D80EB92E00994089590E01D
:1015400080E00E94A20690E080E00E948C0610924B
:101550008602109285020E94F20586E0E0EBF2E03E
:10156000DF011D928A95E9F71092AD021092AA024E
:10157000109238020C94780A60939F027093A00234
:101580008093A1029093A2020C949F0A0F931F9341
:1015900041E050E060E070E004C0440F551F661F5A
:1015A000771F8A95D2F7CB01BA0160957095809527
:1015B000909500919F021091A0022091A10230917C
:1015C000A20260237123822393231F910F910C9415
:1015D000BC0A0F931F9341E050E060E070E004C04C
:1015E000440F551F661F771F8A95D2F780919F027F
:1015F0009091A002A091A102B091A2028A019B0148
:10160000082B192B2A2B3B2BC901B8011F910F91D5
:101610000C94BC0A609387027093880280938902BD
:1016200090938A020C949F0A4091B2028D3E59F425
:101630008091B30287FF0DC01092B30241110BC01D
:101640001092AD0208C08E3E81F48091B30218164C
:101650009CF3442381F08091B4029091B502892BD0
:1016600009F05AC01092AA0208958F3E49F447FF2C
:10167000F0CF1092B2028091B3028111ECCFE0CF93
:10168000803F19F41416ACF3E4CF9091B402893F73
:1016900029F41916F4F61092B402DBCF8A3F19F43C
:1016A00097FFD7CFF8CF9091B5028B3F29F497FFE2
:1016B000D0CF1092B502CDCF8C3F19F41916CCF3D0
:1016C000C8CF9FE0980F983090F4815F990B21E08C
:1016D00030E0B90102C0660F771F8A95E2F7CB01AF
:1016E00080959091B10289238093B102B2CF8D3F52
:1016F00031F4809138028E7F80933802AACF8E3FDA
:1017000021F4809138028D7FF7CF8F3F09F0A1CF70
:10171000809138028B7FF0CF08958823B1F19CEF40
:10172000980F913A38F4682F8CEC91E00E94C8052C
:101730000C94F20590E2980F983088F4877021E0BD
:1017400030E0A90102C0440F551F8A95E2F7CA0193
:1017500080959091BE0289238093BE02E9CF9BE5DC
:10176000980F933020F490E080E00C94A20698E566
:10177000980F973120F490E080E00C948C068D3E19
:1017800020F00E94140B0C94780A0895809138027E
:1017900080FD16C081FD16C082FD16C08091AA0290
:1017A0008823A1F0883280F428E0829FC0011124B0
:1017B00068E270E00E94CC24862F672B39F00895F0
:1017C00082E0089584E0089588E0089581E0089516
:1017D0008091380280FD14C081FD14C082FD16C0C6
:1017E0008091AD02882381F0843180F422E3829FCE
:1017F000C001112464E170E00E94CC24862F08957A
:101800008CE0089589E1089585E0089582E30895C4
:101810008D3E31F40E94E80B81958093B3020895C8
:101820008E3E19F40E94E80BF8CF8F3E31F40E94EF
:10183000E80B81958093B2020895803F19F40E94CD
:10184000E80BF8CF893F29F40E94C60B8093B402BD
:1018500008958A3F21F40E94C60B8195F7CF8B3FF4
:1018600031F40E94C60B81958093B50208958C3F98
:1018700019F40E94C60BF8CF9FE0980F983070F4CF
:10188000815F990B21E030E001C0220F8A95EAF7D1
:101890008091B102822B8093B10208958D3F31F483
:1018A0008091380281608093380208958E3F21F440
:1018B000809138028260F7CF8F3FB9F7809138026C
:1018C0008460F1CFCF93C82F882309F49CC08CEF9C
:1018D0008C0F813A08F064C0809110018823D1F107
:1018E00080918B0287FF36C0EC2FE695E695E69552
:1018F000F0E0E453FE4F828190E04C2F477021E0EE
:1019000030E002C0220F331F4A95E2F7822393236F
:10191000892B61F06C2F8CEC91E00E94C8050E942D
:10192000F20522C080918B0287FF22C0EC2FE69542
:10193000E695E695F0E0E453FE4FC77021E030E015
:1019400001C0220FCA95EAF78281822B8283CF9150
:101950000C94F205EEECF1E084ED91E02191C217D8
:10196000C9F28E179F07D1F7809110018111DACF4C
:10197000AEECB1E0EFEF80E09D91C91741F3EF3F8E
:1019800019F4911101C0E82F8F5F8630A9F7EF3F5E
:10199000F1F20E2E000CFF0BE453FE4FC283D7CFA3
:1019A00080E28C0F883068F4C77021E030E001C01D
:1019B000220FCA95EAF78091BE02822B8093BE0265
:1019C000C6CFEBE5EC0FE33040F4F0E0E05EFE4F15
:1019D000808190E0CF910C94A206E8E5EC0FE7310E
:1019E00050F4F0E0EE0FFF1FED5DFE4F808191811E
:1019F000CF910C948C06CD3E30F08C2F0E94080CB9
:101A0000CF910C94780ACF910895F894E82FE2953D
:101A1000EF70F0E031A1282F2F7081E090E001C03D
:101A2000880F2A95EAF7982F9095932391A392A176
:101A3000892B82A37894089590918B0292FF06C01F
:101A4000282F28712830F9F4877F846093FF06C01F
:101A5000282F28712831F1F4877E846120918C022F
:101A600020FF06C0382F38713830D9F4877F816065
:101A700021FF06C0282F28712831D1F4877E81618B
:101A800094FD877E0895282F24712430F9F68B7FEA
:101A90008860DCCF282F2471243101F78B7E886188
:101AA000DDCF382F3171313019F78E7F8860E0CF6C
:101AB000282F2171213121F78E7E8861E1CFCF93CC
:101AC000DF93972F70E025E0929F600D711D112428
:101AD000FB0139E1839FE00DF11D1124EE0FFF1F83
:101AE000E155FD4FC591D491CE01C238D10589F1A0
:101AF000B8F5C133D10509F493C020F5C932D10539
:101B000009F487C0CA32D10509F491C0C11520E596
:101B1000D20708F0A6C0C11530E4D30708F0F3C01F
:101B2000CF3BD10508F08AC0C83AD10508F0DEC025
:101B3000C53AD10508F0D2C0C430D105F8F42197D8
:101B4000E9F040C0C533D10509F45CC0C933D10503
:101B5000E9F620918B02237089F080EE90E00EC0B0
:101B6000C33ED10591F168F4C03ED105F9F0C23E03
:101B7000D10561F620918B0222FD20C0DF91CF912B
:101B80000895C63ED10561F1C73ED10581F1C43E3D
:101B9000D10509F0BBCF20918C0221FFEFCF8091BE
:101BA0008B0284FD0FC087EE90E0E8CF20918B027E
:101BB00020FDFDC030918C0230FFE0CF83EE90E03D
:101BC00024FFDCCF90E080E0D9CF20918B0222FD72
:101BD000F1C030918C0230FDC0CF24FFCFCFF2CFC7
:101BE00020918B0223FFCACF24FDECCFDCCF2091C4
:101BF0008B0223FDE2C030918C0231FFEECF84EEE8
:101C000090E0BCCF20918B0225FFB8CF89E290E015
:101C1000B5CF20918B0225FFB1CF85E390E0AECF09
:101C200020918B0226FFAACF8AE290E0A7CF2091D5
:101C30008B0226FFA3CF81E390E0A0CFCF3FD10559
:101C400009F050F4CD3ED10508F05AC0C05ED1096C
:101C5000289708F493CFB6CFC115D04208F48ECFA1
:101C6000B1CFC11534E5D307A0F4C11583E5D8077A
:101C700008F07CC0C11592E5D90708F064C0C11511
:101C800021E5D20708F443C09C2F8827816F906A12
:101C900075CFC1153AE5D30778F4C11589E5D807A2
:101CA00008F078C0C11598E5D90708F48BCF9C2FB0
:101CB0008827806F906A62CFCE019056811590423E
:101CC00008F080CF8D2F8F710E941C0D90E0982F0F
:101CD000882788279F718C2B906250CFC55AD0E0FF
:101CE000C05EDE4F888190E0906448CFC85AD0E053
:101CF000CC0FDD1FCD5DDE4F8881998194643ECF8E
:101D0000CE0190653BCFCE019F70906A37CF9E0188
:101D100064E0369527956A95E1F723708C2F8695B8
:101D20008695837030E2839FC0011124922BC3708B
:101D300021E030E002C0220F331FCA95E2F7822B68
:101D4000932B9C681BCF9E012370332781E090E08A
:101D500002C0880F991F2A95E2F7C695C69520E222
:101D6000C29FE00111248C2B9D2BEBCF9E01237091
:101D7000332781E090E002C0880F991F2A95E2F78F
:101D8000C695C69530E2C39FE00111248C2B9D2B94
:101D90009A68F4CE8C2F8F700E941C0D34E0D6957B
:101DA000C7953A95E1F7CF709C2F9069E7CE89E30C
:101DB00090E0E4CE82EE90E0E1CE86EE90E0DECEE2
:101DC000BF92CF92DF92EF92FF920F931F93CF9328
:101DD000DF938C01C0909F02D090A002E090A102FE
:101DE000F090A2028091870290918802A0918902CE
:101DF000B0918A02C82AD92AEA2AFB2ACFE1D0E088
:101E0000BC2ED701C6010C2E04C0B695A795979598
:101E100087950A94D2F780FD0EC0219788F7B12CE0
:101E20008B2DDF91CF911F910F91FF90EF90DF905D
:101E3000CF90BF900895B8018C2F0E945F0D01973D
:101E400061F3EECFCF93DF93EC010E94E00EBE0171
:101E5000DF91CF910C945F0D0E94220F292F2F70DC
:101E600092959F7092509E3078F4E92FF0E0E75001
:101E7000FA4D0C94E024803F19F020F4883E20F4C1
:101E800081E00895843FE1F380E00895883EC0F347
:101E9000813FD1F7F5CF822F869586958695089557
:101EA000CF92DF92EF92FF926C01EE24FF2420E0AC
:101EB000C114D104E104F10419F0C701B60120E115
:101EC000C72ED82EE92EFF24C114D104E104F10459
:101ED00019F0285FC701B6016B017C0154E0F6944C
:101EE000E794D794C7945A95D1F7C114D104E1046B
:101EF000F10419F02C5FC701B6016B017C0142E0CF
:101F0000F694E794D794C7944A95D1F7C114D104B5
:101F1000E104F10419F02E5FC701B601969587958B
:101F200077956795672B682B692B09F02F5F822FB8
:101F3000FF90EF90DF90CF9008951F93CF93DF93A2
:101F4000EC01FC01EE54FE4F80816823A1F00E9459
:101F50003225182F0E943225612F782F8091F402AC
:101F60000E945308462F282F672FCE01DF91CF9173
:101F70001F910C94E106DF91CF911F910895DF929C
:101F8000EF92FF920F931F93CF93DF938C01FC018D
:101F9000EE54FE4F8081682381F1D090F302D091FE
:101FA000F402C091F202EC2EF12C0E943225282F6F
:101FB000C7018C549F4F68E671E00E94CC248E19B3
:101FC0009F0997FD0396959587959595879523701D
:101FD0006C2F289F600D11247D2D8D2F0E9453089A
:101FE000462F282F672FC801DF91CF911F910F91A6
:101FF000FF90EF90DF900C94E106DF91CF911F915D
:102000000F91FF90EF90DF900895CF93DF9300D072
:102010000F92CDB7DEB79091E302943019F5898322
:102020007B836A8382E08093E9008FEF9091E800E0
:10203000815095FD06C095ED9A95F1F7000081114C
:10204000F5CF8091E80085FF0DC050E040E063E0EF
:1020500070E0CE0101960E943B038091E8008E77EC
:102060008093E8000F900F900F90DF91CF9108952B
:10207000BC0184E00C940510BC0183E00C940510B5
:102080009C0182E08093E9009FEF8091E8009150ED
:1020900085FD06C085ED8A95F1F700009111F5CF19
:1020A0008091E80085FF0CC050E040E066E070E001
:1020B000C9010E943B038091E8008E778093E8007D
:1020C0000895CF93DF93EC01809110018823B1F143
:1020D00080918B0287FF32C060E282E08093E9004A
:1020E0008FEF9091E800815095FD06C095ED9A958F
:1020F000F1F700008111F5CF8091E80085FF1BC04A
:102100008091100170E050E040E0811104C050E087
:1021100040E068E070E0CE010E943B038091E8005F
:102120008E778093E80080E2FE01A1ECB2E001909E
:102130000D928A95E1F7DF91CF91089568E081E0F3
:10214000CDCF1F93CF93DF93182FD0E0C0E089331A
:1021500011F4C0E5D0E0812F0E94620C209731F489
:10216000812FDF91CF911F910C948D0B8FE99FE010
:102170000197F1F700C000002197F0CF849A31B3A6
:102180003F7E21B320614FB7F8948FEE91E0FC01C0
:102190005191CF0168E021BB000000C057FF31BB67
:1021A000550F000000C000C000C031BB00C06A95E0
:1021B00091F7F2E084339F0751F74FBF8FE594E02A
:1021C0000197F1F700C000000895CF92DF92EF92DF
:1021D000FF920F931F93CF93DF93C1E5D1E08DE87A
:1021E000E82E82E0F82ED12C01E010E08991F894DD
:1021F000E82FE295EF70F0E021A18F70A80102C0F6
:10220000440F551F8A95E2F7CA01922F982B91A38C
:1022100092A18095892382A3789400C0E6E5F1E03D
:1022200030E020E0C12C4191A42FA295AF70B0E026
:1022300090968C9190E04F7002C0959587954A9545
:10224000E2F780FD4DC0802F022E01C0880F0A9456
:10225000EAF7C82A2F5F3F4F2530310521F7FE01ED
:10226000319780810E94050D50EA5A95F1F7F701E8
:102270008081C816B9F1C08281E0D82AFFEFEF1A39
:10228000FF0A41E0C635D40709F0B0CFDD2061F187
:1022900081E08093EE010E94BC059093ED01809354
:1022A000EC018091EC019091ED010E94AD05039746
:1022B000F8F080918D028093950280918E02809338
:1022C000960280918F028093970280919002809372
:1022D000980280919102809399021092EE0108C0B9
:1022E00080E0B7CF80E0C9CF8091EE018111D9CFD6
:1022F0008D2DDF91CF911F910F91FF90EF90DF9087
:10230000CF900895AF92BF92CF92DF92EF92FF925B
:102310000F931F93CF93DF93EC018AE0A82EFE0169
:102320002491222309F494C0213009F03EC0319653
:102330008491813031F42296FE0184910E94A11093
:1023400007C0823039F42296FE0184910E94620C0B
:102350002196E5CF833031F42296FE0184910E94CC
:102360008D0BF6CF843009F071C02296FE012491C6
:1023700090E080E0FE0131962053330B2A30310586
:1023800048F0019728F3EFE9FFE03197F1F700C03B
:102390000000F7CFA89EA001A99E500D1124C901ED
:1023A000840F951F2491EF01E5CFE22FF0E0E45276
:1023B000FF4FB490822F86958695869590E0FC011C
:1023C000E453FF4FE4902770F12C022E02C0F594E5
:1023D000E7940A94E2F731E0E322FF24FC01E4549D
:1023E000FF4FC490D12C022E02C0D594C7940A94FA
:1023F000E2F7E1E0CE22DD24FC01E455FF4F049139
:1024000010E002C0159507952A95E2F70170112793
:10241000E114F10419F081EE0E94620CC114D104A0
:1024200019F086EE0E94620C8B2D0E94A110CD281F
:1024300019F086EE0E948D0BEF2819F081EE0E94B4
:102440008D0B012B09F484CF8CE278CFEF0180CF84
:10245000DF91CF911F910F91FF90EF90DF90CF9080
:10246000BF90AF9008956AEE7EEF90E080E00E940A
:102470008E2560E082E090E00E94702560E083E0BD
:1024800090E00E94702510928702109288021092AC
:10249000890210928A0260E084E090E00E94702538
:1024A00060E082E290E00E94702560E085E090E0CC
:1024B0000E94702560E086E090E00E9470256FEF3A
:1024C00087E090E00E94702540E050E0BA0188E08B
:1024D00090E00E94822560E08DE090E00E947025EF
:1024E00040E050E0BA0188E190E00E94822560E07F
:1024F00087E190E00E94702540E050E0BA018CE155
:1025000090E00E94822570E060E080E290E00E940E
:102510008E2540E050E0BA0188E190E00E948225DB
:1025200040E050E0BA018FE090E00E94822540E058
:1025300050E0BA0183E190E00C9482258091100173
:10254000EEECF1E0882359F080918B0287FF07C001
:102550008EE1DF011D928A95E9F70C949F0A86E0CF
:10256000F8CF1F93CF93DF93CDB7DEB7AA970FB6FF
:10257000F894DEBF0FBECDBF85EE92E02091F10052
:10258000FC012193CF01F2E08D3E9F07B9F78091C6
:10259000E602833009F46FC0B8F4813009F446C014
:1025A000823009F4B2C08091E80083FF7DC280913F
:1025B000E5029091E6029A3008F076C2E92FF0E049
:1025C000E95FF94D0C94E0248A3009F48DC08B301A
:1025D00009F46EC0893039F78091E502813219F72C
:1025E0008091E9029091EA020297E8F68091E80072
:1025F000877F8093E8008091E80082FF37C0909148
:10260000F3008091F200029729F48091F1008B7F12
:10261000813021F48091F1008093C0028091E80024
:102620008B778093E8000E946503BDCF8091E5021F
:10263000813A09F0B8CF8091E800877F8093E80065
:102640008091E9029091EA02892B61F460E281ECC9
:1026500092E070E00E9417048091E8008B778093ED
:10266000E800A1CF60E090E080E0F3CF8091E3024A
:102670008111C1CF98CF8091E502813A09F093CFC3
:102680008091E9029091EA02892B09F08CCF809128
:10269000E800877F8093E8008091E80080FFFCCF0E
:1026A000809110018093F1008091E8008E77B9CF7E
:1026B0008091E502813209F076CF8091E902909114
:1026C000EA02892B09F06FCF8091E800877F809321
:1026D000E8000E9465038091E70280931001109248
:1026E000BE020E949E125FCF8091E502813209F006
:1026F0005ACF8091E800877F8093E8000E946503AD
:102700008091E8028093BF024ECF8091E502813A2A
:1027100009F049CF8091E800877F8093E80080919D
:10272000E80080FFFCCF8091BF02BCCF803899F0D9
:10273000823809F0B9C18091E9028F70873008F0C2
:10274000B3C18093E9008091EB0085FB882780F975
:102750001092E90006C08091E1029091E20291118D
:1027600082609091E800977F9093E8008093F10059
:102770001092F1008091E8008E7792C1882309F4CD
:1027800080C1823009F090C18091E702811183C13C
:102790008091E9028F702FEF280F263008F084C156
:1027A0008093E9002091EB0020FF75C1933031F454
:1027B0008091EB0080628093EB006DC19091EB0003
:1027C00090619093EB0021E030E001C0220F8A95E8
:1027D000EAF72093EA001092EA008091EB0088600B
:1027E000EACF811161C11091E7021F778091E30068
:1027F0008078812B8093E3008091E800877F80932D
:10280000E8000E9465038091E80080FFFCCF809182
:10281000E30080688093E30082E0111183E08093FD
:10282000E30242C18058823008F03EC18091E70245
:102830009091E8028C3D23E09207A1F583E08A8322
:102840008AE289834FB7F894DE01139620E03EE0D8
:1028500051E2E32FF0E050935700E49120FF03C0D2
:10286000E295EF703F5FEF708E2F90E0EA30C0F09E
:10287000C7968D939D932F5F243159F74FBF809159
:10288000E800877F8093E8006AE270E0CE0101965D
:102890000E9417048091E8008B778093E80004C1C0
:1028A000C096E7CF4091E9025091EA02292F3327E1
:1028B0002330310509F444C078F52130310509F49D
:1028C0006FC08BE390E0E1EDF4E02230310509F0D8
:1028D000EBC02091E800277F2093E8002091EB02D5
:1028E0003091EC028217930708F49C0140E0211517
:1028F000310509F064C0411162C08091E80082FD99
:10290000C9CF8091E302882329F2853019F28091A2
:10291000E80083FFF2CFBECF21323105A9F1223288
:10292000310509F0C1C04115510509F443C04130DA
:10293000510509F0B9C086EB90E0EBEDF3E0C9CFAB
:10294000992781309105C1F0009759F0029709F05D
:10295000ABC0EEE1F5E0E4918E2F90E0EEE1F5E022
:1029600007C0E0E4F5E0E4918E2F90E0E0E4F5E0CC
:10297000009709F499C0ADCFE4E3F5E0E4918E2F20
:1029800090E0E4E3F5E0F4CF4115510571F04130FA
:10299000510509F089C089E090E0ECEFF4E099CFAF
:1029A00082E190E0ECE0F5E094CF89E090E0E3EEA6
:1029B000F4E08FCF80E490E0E1E9F4E08ACF809109
:1029C000E302882309F466CF853009F463CF809150
:1029D000E80083FD5FCF8091E80082FD8ECF80917B
:1029E000E80080FF84CF9091F3008091F2002115E0
:1029F000310519F08830910550F041E0089709F051
:102A000040E08091E8008E778093E80070CF449199
:102A10004093F1003196215031090196E8CF80387A
:102A200009F042C08091E800877F8093E8008091A0
:102A3000E4028093F1009ECE811136C01091E7022E
:102A4000123090F58091E800877F8093E800109322
:102A5000E4020E946503112311F084E005C0809117
:102A6000E30087FDFACF81E08093E30242E061EC6E
:102A700081E00E94840342E261EC82E00E948403D0
:102A800013C08091E702813079F481E0933009F03E
:102A900080E08093E2021092E9008091E800877F55
:102AA0008093E8000E9465038091E80083FF0AC0DC
:102AB0008091E800877F8093E8008091EB0080623E
:102AC0008093EB00AA960FB6F894DEBF0FBECDBF81
:102AD000DF91CF911F91089546E050E06CE170E0E6
:102AE00081EF92E00C9460259091F102937089F04F
:102AF000811107C094609093F102109214010C941C
:102B00006C158C3110F09C66F6CF880F880F982BCF
:102B1000F2CF08958091F10286958695815009F44F
:102B20008BE10C9474158091F102869586958F5FE8
:102B30008C3108F081E00C9474159091F10293703F
:102B400041F08093F2026093F3024093F4020C94FC
:102B50006C150895E1EFF2E0438120E1421B08F497
:102B600040E08181628190E00C949D15E1EFF2E0FC
:102B7000438120E1420F08F44FEF8181628190E0B0
:102B80000C949D15E1EFF2E0628120E1621B08F4F4
:102B900060E08181438190E00C949D15E1EFF2E0CB
:102BA000628120E1620F08F46FEF8181438190E040
:102BB0000C949D15E1EFF2E08181438162818850A0
:102BC000990B0C949D15E1EFF2E0818190E0438137
:102BD000628108960C949D158F929F92AF92BF923E
:102BE000CF92DF92EF92FF920F931F93CF93DF93D9
:102BF00000D000D00F92CDB7DEB77C01FC018381FD
:102C00009481892B39F01081D180812F8D218F3FC4
:102C100009F0EEC30F900F900F900F900F90DF917F
:102C2000CF911F910F91FF90EF90DF90CF90BF90C9
:102C3000AF909F908F9008950E94E00E082F682F0C
:102C400089819A810E943F06E12FF0E025E0D29E23
:102C5000E00DF11D112449E1049FE00DF11D112447
:102C6000EE0FFF1FE155FD4F05911491F701828191
:102C7000F801EF55FD45E930F10550F4EF5EF94DEF
:102C80000C94E024882321F08CEA92E00E948211C7
:102C9000F7019281992331F18091BE0282720B3C3F
:102CA000FCE51F0709F455C108F0E0C0063C4CE5FF
:102CB000140709F43AC108F0B1C0043CECE51E0762
:102CC00009F429C108F02CC1033C2CE5120709F4D2
:102CD00007C10115ECE51E0709F44EC10F3D1C4567
:102CE00009F468C1F70100811181992309F475C1C4
:102CF000C8010E94E00ED82E682FC8010E943F062E
:102D0000B8018D2D0E945F0D182FB82EF70122817A
:102D10004581342F32953F70892F82958F70C82E50
:102D2000D12C8C3008F091C1F601E65EF94D0C947F
:102D3000E024882309F4ACCF81EA92E0A7CF88236E
:102D400009F4A6CF83E992E0A1CF882309F4A0CFAC
:102D50008AE892E09BCF882309F49ACF80E892E03A
:102D600095CF882309F494CF86E792E08FCF88230C
:102D700009F48ECF8AE692E089CF882309F488CFC0
:102D80006FE0C62ED12C8CE592E00E948211FFE705
:102D90002CE042E3F15020404040E1F700C0000049
:102DA00051E0C51AD10879F773CF882309F470CFA1
:102DB0005FE0C52ED12C81EF0E94A11044EBA42E20
:102DC000B12C80EF0E94A11081E0A81AB108C9F7C8
:102DD00032E3A32EB12C8DEE0E94A11091E0A91A2E
:102DE000B108C9F781EF0E94A11024EBA22EB12CEB
:102DF0008FEE0E94A110E1E0AE1AB108C9F792E38C
:102E0000A92EB12C8EEE0E94A110F1E0AF1AB108EC
:102E1000C9F721E0C21AD10871F63ACF083C4CE557
:102E2000140709F48CC008F485C0093CECE51E07C2
:102E300009F48AC04AEA55E166EB75E10A3CFCE513
:102E40001F0709F046CF0F900F900F900F900F9033
:102E5000DF91CF911F910F91FF90EF90DF90CF9076
:102E6000BF90AF909F908F900C94C406003D2CE5CE
:102E7000120709F47FC028F50D3C5CE5150709F43D
:102E800072C008F46BC00E3CFCE51F0709F470C06B
:102E900085E00F3C2CE5120709F01BCF0F900F9037
:102EA0000F900F900F90DF91CF911F910F91FF9096
:102EB000EF90DF90CF90BF90AF909F908F900C9449
:102EC0007415073D4CE5140728F482E1023D1C45CA
:102ED00028F3A0CE0E358DE5180709F49BCEF9CE68
:102EE0008091F10291E089278093F1021092140100
:102EF0000F900F900F900F900F90DF91CF911F9137
:102F00000F91FF90EF90DF90CF90BF90AF909F9088
:102F10008F900C946C154AE855E163E975E193CF05
:102F200043E955E16AE875E18ECF4AED55E163EE7C
:102F300075E189CF43EE55E16AED75E184CF42EC4E
:102F400055E16EEC75E17FCF4EEC55E162EC75E139
:102F50007ACF46EB55E16AEA75E175CF45E85CE169
:102F60006BE77CE170CF4BE75CE165E87CE16BCF20
:102F700081E094CF8DE092CF1092BE020E949E120B
:102F80002FEF44E35CE0215040405040E1F700C0A7
:102F9000000087E797E7909301088093000888E195
:102FA0009AE00FB6F894A895809360000FBE9093B6
:102FB0006000FFCF0F900F900F900F900F90DF9158
:102FC000CF911F910F91FF90EF90DF90CF90BF9026
:102FD000AF909F908F900C943312C8010E941606F8
:102FE000D82E8ECE092F0F70907F11F00295007FA2
:102FF000812F2223C9F0002369F090E2910F9830CD
:1030000010F011110BC08091BE02082B0093BE027C
:103010000E94F205812F0E94620C17C080918602E7
:10302000082B00938602F4CF0E948D0B002369F0D9
:103030000095105E183010F0B11030C08091BE02C3
:1030400008230093BE020E94F205E8E0CE1AD108E0
:10305000F4E0CF16D10410F40E94B80685E0F70121
:10306000DE01119601900D928A95E1F789819A818E
:103070000E9416069A81E981F0E025E0929FE00D1A
:10308000F11D112449E1849FE00DF11D1124EE0F83
:10309000FF1FE155FD4F85919491BCCD8091860233
:1030A000082300938602CFCF892F8F70907F9032B4
:1030B00011F08295807FF1E0BF120EC0222331F023
:1030C000363008F0C2CF0E948206BFCF353008F0FC
:1030D000BCCF0E947706B9CF222341F0332399F366
:1030E00040FF98CF4F70F7014583EDCF332389F32D
:1030F000193349F4FFEF27EE43E0F1502040404000
:10310000E1F700C00000812F0E948D0B9ECF892F18
:1031100086958695837061F0813009F096CF812F76
:103120009370211102C090E080E00E948C068DCF48
:10313000812F9370211102C090E080E00E94A206CE
:1031400084CF812F222329F00E94080C0E94780A44
:103150007CCF0E94140BFACF892F837009F065C0D1
:10316000211173CF812F829586958770880F880FE4
:10317000612F6F70862E912CB12CA12C082E04C0CB
:10318000880C991CAA1CBB1C0A94D2F740E050E0A2
:10319000BA0114FF0FC04FE050E060E070E004C0DF
:1031A000440F551F661F771F8A95D2F7409550959B
:1031B00060957095969596959370923019F1D8F424
:1031C00000918702109188022091890230918A0231
:1031D000913069F0482959296A297B29CB01BA0124
:1031E00060237123822393230E940A0B2ECF802A0F
:1031F000912AA22AB32ACB01BA01682979298A29FE
:103200009B29F2CF482959296A297B2900918702F5
:10321000109188022091890230918A02CB01BA0173
:103220006027712782279327DFCF8695222311F00D
:10323000892F8170882309F408CF812F8295869584
:103240008770880F880F612F6F70862E912CB12C9C
:10325000A12C082E04C0880C991CAA1CBB1C0A9423
:10326000D2F740E050E0BA0114FF0FC04FE050E049
:1032700060E070E004C0440F551F661F771F8A95F9
:10328000D2F7409550956095709596959695937068
:10329000923019F1D8F400919F021091A002209170
:1032A000A1023091A202913069F0482959296A2976
:1032B0007B29CB01BA0160237123822393230E94CF
:1032C000BC0AC3CE802A912AA22AB32ACB01BA0112
:1032D000682979298A299B29F2CF482959296A29FD
:1032E0007B2900919F021091A0022091A1023091B0
:1032F000A202CB01BA016027712782279327DFCF73
:10330000092F0F70222329F0802F0E94E90A812FB4
:10331000DACE812F0E947706802F0E94C60A95CEB2
:10332000812F51EF151709F442C0511758F0E0EF03
:103330001E17F1F0222309F44BC031116BCE892FF7
:103340008F713AC0F2EF1F17D1F143EF1413F2CF90
:103350002223D1F1292F2F7161E070E080E090E00D
:1033600004C0660F771F881F991F2A95D2F7A7CF31
:103370002223C9F0353008F068CE292F2F7161E083
:1033800070E080E090E004C0660F771F881F991FEF
:103390002A95D2F700919F021091A0022091A102DC
:1033A0003091A202A8CF363008F04FCEE6CF892F59
:1033B0008F71222309F4B1CF0E94E90A46CE892FEA
:1033C0008F712223C9F3A9CF60E070E0CB0177CFE2
:1033D000332359F0893309F096CE5FEF87EE93E0FF
:1033E000515080409040E1F78CCE892F8F7195CF5E
:1033F00085E0DE01119601900D928A95E1F7F701C3
:10340000228189819A81211117CC0E941606082FEA
:103410001BCC1F93CF93DF9380913E02807FA9F452
:1034200080913B02882389F080917002D0913F0205
:103430006091390270913A02A0913C02B0913D0234
:10344000C62FC72316E0D81304C0DF91CF911F9178
:10345000089590E0109711F0CF3F19F4019687700E
:10346000F2CF189F9001199F300D1124F901E05CF3
:10347000FD4F41814713F2CF40814613EFCF428188
:103480004111ECCF438154814A1B5B0B483C5105F1
:1034900028F780913E028F70806180933E02F9018F
:1034A000EB5BFD4F80818F708061808389E392E0C8
:1034B0000E94EC15DF91CF911F910C946D06AF9295
:1034C000BF92CF92DF92EF92FF920F931F93CF9311
:1034D000DF93CDB7DEB761970FB6F894DEBF0FBEAE
:1034E000CDBF8C0185E0F801DE011D9601900D92A3
:1034F0008A95E1F7F80180819181E28029E3A22E8B
:1035000022E0B22E60913C0270913D02611571057E
:1035100009F43EC13091390240913A02232F24230D
:103520002F3F09F435C1C380D480F0903B02F601EF
:10353000E61BF70BFF2009F4FBC020913E02522F3F
:10354000507FE83CF10508F0BBC0511178C0FE2C5B
:10355000491321C038131FC0E1101DC02F70206116
:1035600020933E02C5010E94EC1580913E02F801B5
:1035700085838F2D61960FB6F894DEBF0FBECDBF49
:10358000DF91CF911F910F91FF90EF90DF90CF903F
:10359000BF90AF900895CD2829F0282F29232F3FE1
:1035A00009F014C120E0F22FF170DF2E20FF3DC0A2
:1035B0002091700240913F0256E0241315C08D8780
:1035C0009E878D859E850E94220F292F22952F7020
:1035D0002230F8F0243020F59F70F9F0F801958141
:1035E000907FD9F4D12C1FC030E0529FF001539F3F
:1035F000F00D1124E05CFD4F6181961306C06081DF
:10360000861303C06281E61210C02F5F3F4F277000
:10361000D4CF9F7011F0882329F3805E883010F397
:10362000C8010E94EC15FD2CA4CFEE2009F4A1CF17
:1036300080913E02816080933E02F12C9ACF491323
:1036400012C0381310C0E1100EC0F8012583C80164
:103650000E94EC1586E0F801A9E3B2E001900D921A
:103660008A95E1F786CF8D879E878D859E850E94FE
:103670002C0F882309F1EE20F9F080913E02803270
:1036800070F02091390230913A0238872F831986E1
:10369000DB86CA868C87CE0107960E94EC1586E0F1
:1036A000F801A9E3B2E001900D928A95E1F70E943A
:1036B000091AFF24F3945DCFC8010E94EC15F9CFDD
:1036C00051110AC089E392E00E94EC1586E0F501F1
:1036D00011928A95E9F7B1CF49130FC038130DC085
:1036E000E1100BC0F8012583C8010E94EC1586E0AB
:1036F000F50111928A95E9F73CCF8D879E878D85DC
:103700009E850E942C0F8823B9F2EE20A9F28091A9
:103710003E02803220F22091390230913A023A83FF
:1037200029831B82DD82CC828E83CE010196B5CFA8
:10373000E83CF105E0F6FE2CEE2009F4BDCF49137C
:1037400016C0381314C080913E0280FD83CF982F9D
:10375000907F09F47FCFF8018583903F09F477CFFC
:10376000982F907F905F8F70892B858370CF8D8786
:103770009E878D859E850E942C0F811190CF809110
:103780003E02816080933E02C8010E94EC15F1CE9A
:10379000EE2009F491CF8D879E878D859E850E94AE
:1037A0002C0FF82E882309F487CF86E0F801A9E3CF
:1037B000B2E001900D928A95E1F7809139029091E3
:1037C0003A020E94220F0E94091AD3CE21E02E2530
:1037D000EACE1F93CF93DF93CDB7DEB767970FB6CF
:1037E000F894DEBF0FBECDBF342F4B8B252F5C8BE3
:1037F0006D8B7E8B8F8B8E899F89611110928602D3
:103800001A8A198A3D872E876F87998B888B86E065
:10381000FE013D96DE01179601900D928A95E1F723
:10382000CE0107960E945F1A882389F016E08091E6
:10383000700290913F0289134BC067960FB6F894BF
:10384000DEBF0FBECDBFDF91CF911F91089586E0FF
:10385000FE013796DE01119601900D928A95E1F7EF
:103860008A859B85892B11F38F81988589238F3FCA
:10387000E9F220913F0230E0C90101968770992753
:10388000409170024817190681F41092BE020E94FE
:103890009E1210923F021092700286E0E9E3F2E07D
:1038A000DF011D928A95E9F7C1CF96E0929FD00182
:1038B000939FB00D1124A05CBD4FFE013196019085
:1038C0000D929A95E1F780933F020E946D06AECF6C
:1038D000819FC0011124805C9D4F0E945F1A882344
:1038E00009F4ABCF8091700290E001968770992720
:1038F000809370029CCFE1EFF2E0248130E1230F4E
:1039000008F42FEF24830C946C15E1EFF2E024818E
:1039100030E1231B08F420E024830C946C15E1EFC4
:10392000F2E085E380838091150190911601A091CA
:10393000170181839283A3838FE784838FEF85832D
:103940000C946C151F920F920FB60F9211242F93A7
:103950003F934F935F936F937F938F939F93AF9317
:10396000BF93CF93DF93EF93FF93D091E900DF7084
:103970008091EC00C82FC17080FDC0E81092E90072
:103980008091F000877F8093F00078940E94B112BC
:103990001092E9008091F00088608093F000CD2BB8
:1039A000CF70C093E900FF91EF91DF91CF91BF916C
:1039B000AF919F918F917F916F915F914F913F91C7
:1039C0002F910F900FBE0F901F9018951F920F927E
:1039D0000FB60F9211242F933F934F935F936F93E2
:1039E0007F938F939F93AF93BF93EF93FF938091B8
:1039F000E10082FF09C08091E20082FF05C0809152
:103A0000E1008B7F8093E1008091DA0080FF24C089
:103A10008091D80080FF20C08091DA008E7F809353
:103A2000DA008091D90080FF9BC080E189BD82E1EE
:103A300089BD09B400FEFDCF81E08093E30280914F
:103A4000BD02811109C00E94EB020E94B603809161
:103A5000E20084608093E2008091E10080FF17C063
:103A60008091E20080FF13C08091E2008E7F8093FE
:103A7000E2008091E20080618093E2008091D800B2
:103A800080628093D80019BC85E08093E302809126
:103A9000E10084FF29C08091E20084FF25C080E11D
:103AA00089BD82E189BD89B5982F917080FFFBCFD8
:103AB0008091D8008F7D8093D8008091E1008F7E27
:103AC0008093E1008091E2008F7E8093E2008091FC
:103AD000E20081608093E2008091E402882309F48F
:103AE00045C084E08093E3028091E10083FF27C01A
:103AF0008091E20083FF23C08091E100877F809363
:103B0000E10082E08093E3021092E4028091E10000
:103B10008E7F8093E1008091E2008E7F8093E200AF
:103B20008091E20080618093E20042E060E080E00A
:103B30000E9484038091F00088608093F000FF91E0
:103B4000EF91BF91AF919F918F917F916F915F9115
:103B50004F913F912F910F900FBE0F901F9018958E
:103B600019BC1092E3021092BD0276CF8091E3005F
:103B700087FD93E09093E302B7CFCDB7DEB76297AE
:103B80000FB6F894DEBF0FBECDBF84B7877F84BF6A
:103B90000FB6F894A89580916000886180936000CA
:103BA000109260000FBE80E890E00FB6F89480930A
:103BB0006100909361000FBE85B7806885BF85B7AF
:103BC000806885BF88EA95E09093CB018093CA0115
:103BD0000E94EB020E94B6038091E2008460809311
:103BE000E20078948091E3028823A1F01091E9002B
:103BF0001F709091EC00892F817090FD80E8182B48
:103C00001092E9008091E80083FD0E94B1121F70BC
:103C10001093E90082E084BD93E095BD9AEF97BDD3
:103C200080936E0086E60E94050D87E90E94050DCF
:103C300086EC0E94050D84E30E94050D85E30E9439
:103C4000050D87EF0E94050D81E30E94050D83E3BA
:103C50000E94050D82E30E94050D86E30E94050D7A
:103C600010928D021092950210928E02109296027E
:103C700010928F0210929702109290021092980266
:103C8000109291021092990290E080E00E945A25D1
:103C90008A3E9E4F11F00E94331282E090E00E9413
:103CA00052258093B70284E090E00E945225182F9D
:103CB00082E290E00E945225982F812F90938C02EF
:103CC00080938B0283E090E00E945225682F70E081
:103CD00090E080E00E940A0B90E080E00E945A256C
:103CE0008A3E9E4F21F00E9433120E948F1C46E0B4
:103CF00050E06CE170E081EF92E00E9442258091FB
:103D0000F1028C7F11F40E948F1C86988E9A859800
:103D10008D9A8FB186FB882780F97D99DCC090E071
:103D2000892B8093A50286E091E090939302809383
:103D30009202A8E1AA2EB12C85E992E045E0480F55
:103D40004A8BF5E08F2E912C8091E302853009F5A6
:103D500070E4E72E11E0E0E1FE2E02E18091E30243
:103D6000853009F4BAC01092BE020E949E120E94D1
:103D7000B80610929E028091F102837011F41092A5
:103D800014018091F1028C7F81608093F1020E9486
:103D90006C150E94E510882359F08FB7F894409174
:103DA000A6025091A7026091A8027091A9028FBF4C
:103DB000A5E9B2E0E8EBF2E010E000E0302F8D91F1
:103DC0009191981709F4E4C0292F282790E0FF2447
:103DD000F394422F4F2109F4D6C09F8338878F2157
:103DE00091E009F490E099870E94BC058160782FEA
:103DF0009B878A874F81588569858B850E94E91B3F
:103E0000F801E854FD4F8081F826F0828FB7F894CE
:103E10004091A6025091A7026091A8027091A90258
:103E20008FBF40939A0250939B0260939C027093C1
:103E30009D0280919E02F12C811109C08091F102B6
:103E4000982F9370F92E19F0F82EF694F69480912D
:103E50001401813009F4C1C0882309F4B0C0823054
:103E600009F4CCC3833009F4D4C3E091A502EE0F6A
:103E7000EE0FE093A5028FB186FBCC24C0F87D99AC
:103E8000E7C380E08C29E82BE093A502EF70F0E017
:103E9000E55AFE4F80819091A402890F8093A4027D
:103EA00020E084300CF4DBC38091A3028F5F809309
:103EB000A30260919F027091A0028091A102909153
:103EC000A2020E94500F833009F4C5C3843009F464
:103ED000E0C38AEAC1C392E023CF8091E302843039
:103EE00009F441C040E060E080E00E94DF0680917C
:103EF000F102837011F0109214018091F1028C7F15
:103F00008093F1020E946C1540E060E080E00E9426
:103F1000DF0610939E0240E060E080E00E94DF0632
:103F200010939E02109294020FB6F894A895A09256
:103F300060000FBEE092600083B7817F846083BF22
:103F400083B7816083BF7894889583B78E7F83BF62
:103F50000FB6F894A8958091600088618093600006
:103F6000109260000FBE8091E202882309F4F6CE21
:103F70000E94E510E5E9F2E0819181118CC48A8903
:103F80008E13FACFEBCE9F5FFF0C953009F021CF57
:103F90000F5F1F4F0530110509F010CF8FEF8C8791
:103FA0008D871E860E94BC058160782F988B8F8735
:103FB0004C855D856E8588890E94E91B27CF10920C
:103FC00011014093ED025093EE026093EF02709363
:103FD000F00281E08093140148CF80910501F8122E
:103FE00024C09091F10293702091040130E081E0AF
:103FF0009217130609F480E0817080931301809179
:10400000F60290911201981739F08093120140E066
:1040100060E080E00E94DF062BE12F1560F0EF2DBD
:10402000F0E0EA5DF94D0C94E02481E0E5CF809169
:104030001301811102C010E068C040E060E080E040
:104040000E94DF06F8CF80911101082F000F000FAA
:10405000080F65E0E62EE00E7E2C37E13E1510F4E9
:1040600057E1752E6091F2027091F3028091F40293
:104070000E945308662E572E482E10E0071530F088
:1040800011E046E14E1508F040C0D5CFF801EE54DE
:10409000FE4F808190911201892331F0242D462D0D
:1040A000652DC8010E94E1060F5F1F4FE7CF809189
:1040B0001101082F000F000F080F85E0800F898B7A
:1040C000782E883110F047E1742E2090F302309062
:1040D000F4021091F202612F722D832D0E94530879
:1040E000662E572E482E6091F502610F722D832D9A
:1040F0000E945308362EE72E282E10E0071590F167
:1041000011E09989973108F096CF809111018F5F66
:104110008093110111111FC282E0809314018091DC
:104120001301811118C2FF2009F471C260919F022E
:104130007091A0028091A1029091A2020E94500F62
:10414000813009F429C2882309F409C2833009F4B3
:104150003CC2853009F089CE40E060E080E10E94F9
:10416000DF0683CEF801EE54FE4F9081809112015C
:10417000892359F0222D432D6E2D90FD03C0242D4F
:10418000462D652DC8010E94E1060F5F1F4FB6CF77
:1041900080911101082F000F000F080F35E0E32E6A
:1041A000E00E6E2C27E12E1510F427E1622E5090C0
:1041B000F3024090F4022091F50290E4792E372D1D
:1041C000329F312D1124732E10E0061508F058CFC0
:1041D000F801EE54FE4F8081909112018923B9F0CD
:1041E000F801EE0FFF1FE559FE4F828D82958F700B
:1041F0006091F202879D600D1124752D842D0E941F
:104200005308462F282F672FC8010E94E1060F5F31
:104210001F4FDBCF80911101082F000F000F080FF7
:10422000B5E0EB2EE00E6E2C87E18E1510F4A7E1C1
:104230006A2E5090F3024090F4022091F502F0E4CF
:104240007F2E372D329F312D1124732E10E006154D
:1042500008F016CFF801EE54FE4F808190911201C4
:104260008923D9F0F801EE0FFF1FE559FE4F618D4C
:10427000769EB0011124E5E075956795EA95E1F722
:104280008091F202680F752D842D0E945308462FED
:10429000282F672FC8010E94E1060F5F1F4FD7CF5D
:1042A00080911101082F000F000F080F55E0E52E37
:1042B000E00E7E2C87E18E1510F447E1742E60909D
:1042C000F2021091F3025090F4026091F5026695AB
:1042D000669566958091ED029091EE020E944908E4
:1042E0000E94AF07805887FD8195880F282F352DB4
:1042F000239F212D1124822F662D712F0E94530898
:10430000662E572E482E10E0071508F0B9CEF8019A
:10431000EE54FE4F808190911201892331F0242DBB
:10432000462D652DC8010E94E1060F5F1F4FECCF9F
:104330008FE795E00E94C80907C085E595E0FACFB0
:1043400081E997E00E946809182FDFCE82E797E0A5
:10435000F9CF87E597E00E94E708F6CF8BE397E077
:10436000FACF83E595E0E6CF8AE495E0E3CF81E4F8
:1043700095E0E0CF88E295E0DDCF8AE195E0EBCFF4
:1043800081E298E0DFCF8AE297E0DCCF86E197E038
:10439000E2CF8CEE94E00E94160AD6CF8DEB94E02B
:1043A000FACF86E894E0F7CF1091130111111EC0E7
:1043B0006091F50220E1620F08F46FEF8091ED0249
:1043C0009091EE020E9449086AE070E00E94B824D1
:1043D000892B09F030CE0E94322567E170E00E94FF
:1043E000CC24609112010E94BF0F8FCE80911101E9
:1043F000682E660C660C860D35E0E32EE80E0E2D59
:1044000097E19E1508F407E1682E712C10E0601604
:10441000710634F011E036E13E1508F076CE0BCE91
:1044200060911201C3010E94BF0F2FEF621A720A3E
:10443000EECF1091130111111DC06091F50220E122
:10444000620F08F46FEF8091ED029091EE020E94EE
:104450004908B4010E94B824892B09F0ECCD0E94D0
:10446000322567E170E00E94CC24609112010E9425
:104470009D0F4BCE80911101682E660C660C860D47
:1044800025E0E22EE80E0E2D47E14E1508F407E177
:10449000682E712C10E06016710634F011E096E180
:1044A0009E1508F032CEC7CD60911201C3010E9463
:1044B0009D0F8FEF681A780AEECF80911101082FB7
:1044C000000F000F080F95E0E92EE00E7E2C27E18B
:1044D0002E1510F487E1782E5090F3026090F402CC
:1044E0001091F2026091F50266956695669580914D
:1044F000ED029091EE020E9449080E94AF07805899
:1045000087FD8195880F682F2CE0629F612D112413
:10451000610F752D862D0E945308662E572E482E4A
:1045200010E0071508F076CFF801EE54FE4F8081B9
:1045300090911201892331F0242D462D652DC8015B
:104540000E94E1060F5F1F4FECCF8EEC97E0F2CE9A
:1045500085E794E0EFCEFF2009F487CCE7CD22E198
:1045600042E162E190E080E00E94E10622E142E166
:1045700062E184E090E00E94E10622E142E162E132
:1045800082E190E00E94E10622E142E162E186E1FF
:1045900090E00E94E10669CC20E040E160E090E01C
:1045A00080E00E94E10620E040E160E084E090E0ED
:1045B0000E94E10620E040E160E082E190E00E949C
:1045C000E10620E040E160E0E2CF20E040E060E191
:1045D00090E080E00E94E10620E040E060E184E0BD
:1045E00090E00E94E10620E040E060E182E190E09E
:1045F0000E94E10620E040E060E1C9CFF0920501B1
:104600008091F1028370809304010E94BE1083E0C8
:10461000E1CC4091ED025091EE026091EF02709179
:10462000F0022FB7F8948091A6029091A702A09172
:10463000A802B091A9022FBF841B950BA60BB70B44
:104640004097A105B10508F410CC109214010DCCCF
:1046500082E090E017CC8AEF0E94A11021E08091C7
:10466000A4028D3FE4F48091A30281508093A302C1
:1046700060919F027091A0028091A1029091A2028C
:104680000E94500F833039F0843009F4F2C089EA77
:1046900003C08CEFE1CF89EF0E94A11021E080914F
:1046A000A402082E000C990B64E070E00E94CC2458
:1046B0008093A402222359F08FB7F8944091A60268
:1046C0005091A7026091A8027091A9028FBF86E065
:1046D000E0EBF2E0DE01119601900D928A95E1F790
:1046E000F090B202E090B3021091B4020091B502D2
:1046F0001092B2021092B3021092B4021092B5025C
:104700008F2D8E2909F448C08091AE029091AF029E
:104710000E94AD059C019091AD02992309F4D8C087
:1047200023333105C8F19F3F19F09F5F9093AD028D
:10473000FF2059F00E94E80B9FEF1F140CF491E04A
:10474000899F802D11248093B202EE2059F00E949F
:10475000E80B9FEF1E140CF491E0899F802D11242B
:104760008093B3023091B2023323B1F02091B302AF
:10477000222391F045EB3403C0011124992309F45D
:104780007AC09093B20245EB2403900111243323A5
:1047900009F475C03093B302812F802B09F446C011
:1047A0008091AB029091AC020E94AD059C0190916A
:1047B000AA02992309F487C025363105B8F19F3F35
:1047C00019F09F5F9093AA02112359F00E94C60B23
:1047D0009FEF11160CF491E0899F802D1124809396
:1047E000B402002359F00E94C60B9FEF10160CF480
:1047F00091E0899F802D11248093B5023091B402FD
:104800003323A1F02091B502222381F045EB34033C
:10481000C00111249923B9F19093B40245EB24030C
:1048200090011124332399F13093B5028091B202A3
:104830009091B302892B9091B402892B9091B5028B
:10484000892B11F00E94780A86E0FE013196A0EBD8
:10485000B2E001900D928A95E1F70E94B80690911E
:10486000B602891709F470CA0E94B8068093B6028E
:1048700068CA8BEF11CF81E08093B20284CF81E0D0
:104880008093B30289CF81E08093B402C7CF81E0E7
:104890008093B502CBCFF9BC09BD09B400FEFDCFB2
:1048A0008091D8008F7D8093D8008091E000826055
:1048B0008093E0008091E00081FDFCCF1092BE0269
:1048C0000E949E124BCA2D32314008F07ACFAECFF3
:1048D0002D32314008F029CF5FCF78941F921FB658
:1048E0001F9211248F939F93AF93BF938091A60241
:1048F0009091A702A091A802B091A9020196A11DD2
:10490000B11D8093A6029093A702A093A802B09332
:10491000A902BF91AF919F918F911F901FBE1F90D1
:1049200018951F921FB61F9211248F939F93AF93D8
:10493000BF9380919402811113C08091A60290913F
:10494000A702A091A802B091A9024196A11DB11D94
:104950008093A6029093A702A093A802B093A90205
:10496000BF91AF919F918F911F901FBE1F9018957F
:10497000AA1BBB1B51E107C0AA1FBB1FA617B70785
:1049800010F0A61BB70B881F991F5A95A9F78095A1
:104990009095BC01CD01089597FB072E16F4009465
:1049A00007D077FD09D00E94B82407FC05D03EF45B
:1049B000909581959F4F0895709561957F4F0895CB
:1049C000EE0FFF1F0590F491E02D09948F929F92B6
:1049D000AF92BF92CF92DF92EF92FF92CF93DF938D
:1049E000EC01688179818A819B816115710581055E
:1049F000910521F464E279ED8BE597E02DE133EF49
:104A000041E050E00E94942549015A019B01AC010C
:104A1000A7EAB1E40E94B3256B017C01ACEEB4EFD0
:104A2000A50194010E94C125DC01CB018C0D9D1DC7
:104A3000AE1DBF1DB7FF03C00197A109B048888311
:104A40009983AA83BB839F77DF91CF91FF90EF90EB
:104A5000DF90CF90BF90AF909F908F9008950E946D
:104A6000E624089580E091E00E94E6240895B0E0F5
:104A7000A0E08093000190930101A0930201B09304
:104A800003010895DC01CB01FC01F999FECF06C0BA
:104A9000F2BDE1BDF89A319600B40D9241505040FC
:104AA000B8F70895F999FECF92BD81BDF89A99277C
:104AB00080B50895A8E1B0E042E050E00C944425B0
:104AC000DC01A40FB51F4150504048F0CB01840FCA
:104AD000951F2E910E94712541505040D0F70895A6
:104AE000262FF999FECF92BD81BDF89A019700B4A7
:104AF000021639F01FBA20BD0FB6F894FA9AF99A47
:104B00000FBE08950396272F0E9471250E947025DD
:104B1000252F0E947125242F0C9471250196272F93
:104B20000E9471250C947025052E97FB1EF40094AD
:104B30000E94AB2557FD07D00E94C62507FC03D075
:104B40004EF40C94AB2550954095309521953F4FF0
:104B50004F4F5F4F089590958095709561957F4F69
:104B60008F4F9F4F08950E94E825A59F900DB49FF9
:104B7000900DA49F800D911D11240895B7FF0C94F2
:104B8000B3250E94B325821B930B0895A1E21A2E30
:104B9000AA1BBB1BFD010DC0AA1FBB1FEE1FFF1FE1
:104BA000A217B307E407F50720F0A21BB30BE40B31
:104BB000F50B661F771F881F991F1A9469F7609578
:104BC0007095809590959B01AC01BD01CF01089532
:104BD000A29FB001B39FC001A39F700D811D11243E
:104BE000911DB29F700D811D1124911D0895F8949F
:104BF000FFCF3B0F3B0F440F440F460F440F440FB2
:104C0000440F3B0F3B0F4B0F440F440F4B0F9613BA
:104C1000BE135415BE135415F113121454150F1569
:104C20001C154216B116AB169F16B7169916A51687
:104C3000BD16D516F217F217541854188718A11874
:104C400025182518AC1880199019901917202320C1
:104C50005720C8200A21502198219D21A021A6215A
:104C6000A921AE21B121B421B721BA21BD21C02192
:104C7000C321C621C921CE21D121D42119225D22EF
:044C8000A522A8229F
:104C840001000000FFFFAA05611040103C1038101D
:104C94000100FF000300FFFF003131295A1B750A90
:104CA400818283E200E900EA00B500B600B700CDD6
:104CB400008301CC008A0192019401210223022481
:104CC400022502260227022A02B300B4006F0070F4
:104CD400006697C63435F73133323600FF010001E0
:104CE4000000FFFF0000010001FF000001020304B7
:104CF40005060708090A0B0C0DFF0E0F10111213FD
:104D0400141516FF000038007000A800E000001021
:104D140038107010A810E018002038207020A82047
:104D2400003038307030A830E038004038407040EF
:104D3400A84004040404040404040404040404044F
:0A4D44000404040404040404040041
:00000001FF
